{"abi":[{"type":"constructor","inputs":[{"name":"name_","type":"string","internalType":"string"},{"name":"symbol_","type":"string","internalType":"string"}],"stateMutability":"nonpayable"},{"type":"function","name":"addToAllowlist","inputs":[{"name":"account","type":"address","internalType":"address"}],"outputs":[],"stateMutability":"nonpayable"},{"type":"function","name":"allowance","inputs":[{"name":"owner","type":"address","internalType":"address"},{"name":"spender","type":"address","internalType":"address"}],"outputs":[{"name":"","type":"uint256","internalType":"uint256"}],"stateMutability":"view"},{"type":"function","name":"approve","inputs":[{"name":"spender","type":"address","internalType":"address"},{"name":"value","type":"uint256","internalType":"uint256"}],"outputs":[{"name":"","type":"bool","internalType":"bool"}],"stateMutability":"nonpayable"},{"type":"function","name":"balanceOf","inputs":[{"name":"account","type":"address","internalType":"address"}],"outputs":[{"name":"","type":"uint256","internalType":"uint256"}],"stateMutability":"view"},{"type":"function","name":"buyback","inputs":[{"name":"holder","type":"address","internalType":"address"},{"name":"amount","type":"uint256","internalType":"uint256"}],"outputs":[],"stateMutability":"nonpayable"},{"type":"function","name":"changeMetadata","inputs":[{"name":"newName","type":"string","internalType":"string"},{"name":"newSymbol","type":"string","internalType":"string"}],"outputs":[],"stateMutability":"nonpayable"},{"type":"function","name":"decimals","inputs":[],"outputs":[{"name":"","type":"uint8","internalType":"uint8"}],"stateMutability":"view"},{"type":"function","name":"executeSplit","inputs":[{"name":"multiplier","type":"uint256","internalType":"uint256"},{"name":"holders","type":"address[]","internalType":"address[]"}],"outputs":[],"stateMutability":"nonpayable"},{"type":"function","name":"isAllowlisted","inputs":[{"name":"account","type":"address","internalType":"address"}],"outputs":[{"name":"","type":"bool","internalType":"bool"}],"stateMutability":"view"},{"type":"function","name":"mint","inputs":[{"name":"to","type":"address","internalType":"address"},{"name":"amount","type":"uint256","internalType":"uint256"}],"outputs":[],"stateMutability":"nonpayable"},{"type":"function","name":"name","inputs":[],"outputs":[{"name":"","type":"string","internalType":"string"}],"stateMutability":"view"},{"type":"function","name":"owner","inputs":[],"outputs":[{"name":"","type":"address","internalType":"address"}],"stateMutability":"view"},{"type":"function","name":"removeFromAllowlist","inputs":[{"name":"account","type":"address","internalType":"address"}],"outputs":[],"stateMutability":"nonpayable"},{"type":"function","name":"renounceOwnership","inputs":[],"outputs":[],"stateMutability":"nonpayable"},{"type":"function","name":"symbol","inputs":[],"outputs":[{"name":"","type":"string","internalType":"string"}],"stateMutability":"view"},{"type":"function","name":"totalSupply","inputs":[],"outputs":[{"name":"","type":"uint256","internalType":"uint256"}],"stateMutability":"view"},{"type":"function","name":"transfer","inputs":[{"name":"to","type":"address","internalType":"address"},{"name":"value","type":"uint256","internalType":"uint256"}],"outputs":[{"name":"","type":"bool","internalType":"bool"}],"stateMutability":"nonpayable"},{"type":"function","name":"transferFrom","inputs":[{"name":"from","type":"address","internalType":"address"},{"name":"to","type":"address","internalType":"address"},{"name":"value","type":"uint256","internalType":"uint256"}],"outputs":[{"name":"","type":"bool","internalType":"bool"}],"stateMutability":"nonpayable"},{"type":"function","name":"transferOwnership","inputs":[{"name":"newOwner","type":"address","internalType":"address"}],"outputs":[],"stateMutability":"nonpayable"},{"type":"event","name":"AddressAllowlisted","inputs":[{"name":"account","type":"address","indexed":true,"internalType":"address"}],"anonymous":false},{"type":"event","name":"AddressRemovedFromAllowlist","inputs":[{"name":"account","type":"address","indexed":true,"internalType":"address"}],"anonymous":false},{"type":"event","name":"Approval","inputs":[{"name":"owner","type":"address","indexed":true,"internalType":"address"},{"name":"spender","type":"address","indexed":true,"internalType":"address"},{"name":"value","type":"uint256","indexed":false,"internalType":"uint256"}],"anonymous":false},{"type":"event","name":"MetadataChanged","inputs":[{"name":"oldName","type":"string","indexed":false,"internalType":"string"},{"name":"newName","type":"string","indexed":false,"internalType":"string"},{"name":"oldSymbol","type":"string","indexed":false,"internalType":"string"},{"name":"newSymbol","type":"string","indexed":false,"internalType":"string"}],"anonymous":false},{"type":"event","name":"OwnershipTransferred","inputs":[{"name":"previousOwner","type":"address","indexed":true,"internalType":"address"},{"name":"newOwner","type":"address","indexed":true,"internalType":"address"}],"anonymous":false},{"type":"event","name":"SharesBoughtBack","inputs":[{"name":"holder","type":"address","indexed":true,"internalType":"address"},{"name":"amount","type":"uint256","indexed":false,"internalType":"uint256"},{"name":"timestamp","type":"uint256","indexed":false,"internalType":"uint256"}],"anonymous":false},{"type":"event","name":"StockSplit","inputs":[{"name":"multiplier","type":"uint256","indexed":false,"internalType":"uint256"},{"name":"newTotalSupply","type":"uint256","indexed":false,"internalType":"uint256"},{"name":"timestamp","type":"uint256","indexed":false,"internalType":"uint256"}],"anonymous":false},{"type":"event","name":"Transfer","inputs":[{"name":"from","type":"address","indexed":true,"internalType":"address"},{"name":"to","type":"address","indexed":true,"internalType":"address"},{"name":"value","type":"uint256","indexed":false,"internalType":"uint256"}],"anonymous":false},{"type":"error","name":"ERC20InsufficientAllowance","inputs":[{"name":"spender","type":"address","internalType":"address"},{"name":"allowance","type":"uint256","internalType":"uint256"},{"name":"needed","type":"uint256","internalType":"uint256"}]},{"type":"error","name":"ERC20InsufficientBalance","inputs":[{"name":"sender","type":"address","internalType":"address"},{"name":"balance","type":"uint256","internalType":"uint256"},{"name":"needed","type":"uint256","internalType":"uint256"}]},{"type":"error","name":"ERC20InvalidApprover","inputs":[{"name":"approver","type":"address","internalType":"address"}]},{"type":"error","name":"ERC20InvalidReceiver","inputs":[{"name":"receiver","type":"address","internalType":"address"}]},{"type":"error","name":"ERC20InvalidSender","inputs":[{"name":"sender","type":"address","internalType":"address"}]},{"type":"error","name":"ERC20InvalidSpender","inputs":[{"name":"spender","type":"address","internalType":"address"}]},{"type":"error","name":"InvalidAddress","inputs":[]},{"type":"error","name":"InvalidMetadata","inputs":[]},{"type":"error","name":"InvalidMultiplier","inputs":[]},{"type":"error","name":"NoHolders","inputs":[]},{"type":"error","name":"OwnableInvalidOwner","inputs":[{"name":"owner","type":"address","internalType":"address"}]},{"type":"error","name":"OwnableUnauthorizedAccount","inputs":[{"name":"account","type":"address","internalType":"address"}]},{"type":"error","name":"TransferNotAllowed","inputs":[{"name":"from","type":"address","internalType":"address"},{"name":"to","type":"address","internalType":"address"}]}],"bytecode":{"object":"0x608060405234801562000010575f80fd5b506040516200274f3803806200274f833981810160405281019062000036919062000358565b33828281600390816200004a919062000612565b5080600490816200005c919062000612565b5050505f73ffffffffffffffffffffffffffffffffffffffff168173ffffffffffffffffffffffffffffffffffffffff1603620000d2575f6040517f1e4fbdf7000000000000000000000000000000000000000000000000000000008152600401620000c9919062000739565b60405180910390fd5b620000e3816200011060201b60201c565b508160079081620000f5919062000612565b50806008908162000107919062000612565b50505062000754565b5f60055f9054906101000a900473ffffffffffffffffffffffffffffffffffffffff1690508160055f6101000a81548173ffffffffffffffffffffffffffffffffffffffff021916908373ffffffffffffffffffffffffffffffffffffffff1602179055508173ffffffffffffffffffffffffffffffffffffffff168173ffffffffffffffffffffffffffffffffffffffff167f8be0079c531659141344cd1fd0a4f28419497f9722a3daafe3b4186f6b6457e060405160405180910390a35050565b5f604051905090565b5f80fd5b5f80fd5b5f80fd5b5f80fd5b5f601f19601f8301169050919050565b7f4e487b71000000000000000000000000000000000000000000000000000000005f52604160045260245ffd5b6200023482620001ec565b810181811067ffffffffffffffff82111715620002565762000255620001fc565b5b80604052505050565b5f6200026a620001d3565b905062000278828262000229565b919050565b5f67ffffffffffffffff8211156200029a5762000299620001fc565b5b620002a582620001ec565b9050602081019050919050565b5f5b83811015620002d1578082015181840152602081019050620002b4565b5f8484015250505050565b5f620002f2620002ec846200027d565b6200025f565b905082815260208101848484011115620003115762000310620001e8565b5b6200031e848285620002b2565b509392505050565b5f82601f8301126200033d576200033c620001e4565b5b81516200034f848260208601620002dc565b91505092915050565b5f8060408385031215620003715762000370620001dc565b5b5f83015167ffffffffffffffff811115620003915762000390620001e0565b5b6200039f8582860162000326565b925050602083015167ffffffffffffffff811115620003c357620003c2620001e0565b5b620003d18582860162000326565b9150509250929050565b5f81519050919050565b7f4e487b71000000000000000000000000000000000000000000000000000000005f52602260045260245ffd5b5f60028204905060018216806200042a57607f821691505b60208210810362000440576200043f620003e5565b5b50919050565b5f819050815f5260205f209050919050565b5f6020601f8301049050919050565b5f82821b905092915050565b5f60088302620004a47fffffffffffffffffffffffffffffffffffffffffffffffffffffffffffffffff8262000467565b620004b0868362000467565b95508019841693508086168417925050509392505050565b5f819050919050565b5f819050919050565b5f620004fa620004f4620004ee84620004c8565b620004d1565b620004c8565b9050919050565b5f819050919050565b6200051583620004da565b6200052d620005248262000501565b84845462000473565b825550505050565b5f90565b6200054362000535565b620005508184846200050a565b505050565b5b8181101562000577576200056b5f8262000539565b60018101905062000556565b5050565b601f821115620005c657620005908162000446565b6200059b8462000458565b81016020851015620005ab578190505b620005c3620005ba8562000458565b83018262000555565b50505b505050565b5f82821c905092915050565b5f620005e85f1984600802620005cb565b1980831691505092915050565b5f620006028383620005d7565b9150826002028217905092915050565b6200061d82620003db565b67ffffffffffffffff811115620006395762000638620001fc565b5b62000645825462000412565b620006528282856200057b565b5f60209050601f83116001811462000688575f841562000673578287015190505b6200067f8582620005f5565b865550620006ee565b601f198416620006988662000446565b5f5b82811015620006c1578489015182556001820191506020850194506020810190506200069a565b86831015620006e15784890151620006dd601f891682620005d7565b8355505b6001600288020188555050505b505050505050565b5f73ffffffffffffffffffffffffffffffffffffffff82169050919050565b5f6200072182620006f6565b9050919050565b620007338162000715565b82525050565b5f6020820190506200074e5f83018462000728565b92915050565b611fed80620007625f395ff3fe608060405234801561000f575f80fd5b506004361061011f575f3560e01c8063655f767c116100ab578063a9059cbb1161006f578063a9059cbb146102f3578063cf1e674a14610323578063dd62ed3e1461033f578063f2fde38b1461036f578063f8e86ece1461038b5761011f565b8063655f767c1461026157806370a082311461027d578063715018a6146102ad5780638da5cb5b146102b757806395d89b41146102d55761011f565b806323b872dd116100f257806323b872dd146101bf578063313ce567146101ef57806340c10f191461020d578063595bddf9146102295780635da93d7e146102455761011f565b806305a3b8091461012357806306fdde0314610153578063095ea7b31461017157806318160ddd146101a1575b5f80fd5b61013d600480360381019061013891906115ef565b6103a7565b60405161014a9190611634565b60405180910390f35b61015b6103f9565b60405161016891906116d7565b60405180910390f35b61018b6004803603810190610186919061172a565b610489565b6040516101989190611634565b60405180910390f35b6101a96104ab565b6040516101b69190611777565b60405180910390f35b6101d960048036038101906101d49190611790565b6104b4565b6040516101e69190611634565b60405180910390f35b6101f76104e2565b60405161020491906117fb565b60405180910390f35b6102276004803603810190610222919061172a565b6104ea565b005b610243600480360381019061023e9190611940565b610500565b005b61025f600480360381019061025a91906115ef565b6106c9565b005b61027b6004803603810190610276919061172a565b61076b565b005b610297600480360381019061029291906115ef565b6107d1565b6040516102a49190611777565b60405180910390f35b6102b5610816565b005b6102bf610829565b6040516102cc91906119c5565b60405180910390f35b6102dd610851565b6040516102ea91906116d7565b60405180910390f35b61030d6004803603810190610308919061172a565b6108e1565b60405161031a9190611634565b60405180910390f35b61033d60048036038101906103389190611a3b565b610903565b005b61035960048036038101906103549190611a98565b610a4b565b6040516103669190611777565b60405180910390f35b610389600480360381019061038491906115ef565b610acd565b005b6103a560048036038101906103a091906115ef565b610b51565b005b5f60065f8373ffffffffffffffffffffffffffffffffffffffff1673ffffffffffffffffffffffffffffffffffffffff1681526020019081526020015f205f9054906101000a900460ff169050919050565b60606007805461040890611b03565b80601f016020809104026020016040519081016040528092919081815260200182805461043490611b03565b801561047f5780601f106104565761010080835404028352916020019161047f565b820191905f5260205f20905b81548152906001019060200180831161046257829003601f168201915b5050505050905090565b5f80610493610c59565b90506104a0818585610c60565b600191505092915050565b5f600254905090565b5f806104be610c59565b90506104cb858285610c72565b6104d6858585610d05565b60019150509392505050565b5f6012905090565b6104f2610df5565b6104fc8282610e7c565b5050565b610508610df5565b5f8251148061051757505f8151145b1561054e576040517fbcecb64a00000000000000000000000000000000000000000000000000000000815260040160405180910390fd5b5f6007805461055c90611b03565b80601f016020809104026020016040519081016040528092919081815260200182805461058890611b03565b80156105d35780601f106105aa576101008083540402835291602001916105d3565b820191905f5260205f20905b8154815290600101906020018083116105b657829003601f168201915b505050505090505f600880546105e890611b03565b80601f016020809104026020016040519081016040528092919081815260200182805461061490611b03565b801561065f5780601f106106365761010080835404028352916020019161065f565b820191905f5260205f20905b81548152906001019060200180831161064257829003601f168201915b5050505050905083600790816106759190611cd0565b5082600890816106859190611cd0565b507f291ae74c7533db739130c6791815858c63b858e5f07ead9bbda4b1e49ac80803828583866040516106bb9493929190611d9f565b60405180910390a150505050565b6106d1610df5565b5f60065f8373ffffffffffffffffffffffffffffffffffffffff1673ffffffffffffffffffffffffffffffffffffffff1681526020019081526020015f205f6101000a81548160ff0219169083151502179055508073ffffffffffffffffffffffffffffffffffffffff167ff27dccb929dd3f4dba2d3ffc29a7c74e35995e051a268a7c466f9ddabdf81eac60405160405180910390a250565b610773610df5565b61077d8282610efb565b8173ffffffffffffffffffffffffffffffffffffffff167f825d7b79996acde524483d8aa3dd567b31e1840b548e3af17759d0e3212f9eec82426040516107c5929190611dfe565b60405180910390a25050565b5f805f8373ffffffffffffffffffffffffffffffffffffffff1673ffffffffffffffffffffffffffffffffffffffff1681526020019081526020015f20549050919050565b61081e610df5565b6108275f610f7a565b565b5f60055f9054906101000a900473ffffffffffffffffffffffffffffffffffffffff16905090565b60606008805461086090611b03565b80601f016020809104026020016040519081016040528092919081815260200182805461088c90611b03565b80156108d75780601f106108ae576101008083540402835291602001916108d7565b820191905f5260205f20905b8154815290600101906020018083116108ba57829003601f168201915b5050505050905090565b5f806108eb610c59565b90506108f8818585610d05565b600191505092915050565b61090b610df5565b60018311610945576040517f6f12f3dc00000000000000000000000000000000000000000000000000000000815260040160405180910390fd5b5f8282905003610981576040517febae349300000000000000000000000000000000000000000000000000000000815260040160405180910390fd5b5f5b82829050811015610a03575f8383838181106109a2576109a1611e25565b5b90506020020160208101906109b791906115ef565b90505f6109c3826107d1565b90505f8111156109f4575f6001876109db9190611e7f565b826109e69190611eb2565b90506109f28382610e7c565b505b50508080600101915050610983565b507f7ebc71b122b508b6dfd8d2ffddc494a046bc8294996bf308df865409ce7aac9283610a2e6104ab565b42604051610a3e93929190611ef3565b60405180910390a1505050565b5f60015f8473ffffffffffffffffffffffffffffffffffffffff1673ffffffffffffffffffffffffffffffffffffffff1681526020019081526020015f205f8373ffffffffffffffffffffffffffffffffffffffff1673ffffffffffffffffffffffffffffffffffffffff1681526020019081526020015f2054905092915050565b610ad5610df5565b5f73ffffffffffffffffffffffffffffffffffffffff168173ffffffffffffffffffffffffffffffffffffffff1603610b45575f6040517f1e4fbdf7000000000000000000000000000000000000000000000000000000008152600401610b3c91906119c5565b60405180910390fd5b610b4e81610f7a565b50565b610b59610df5565b5f73ffffffffffffffffffffffffffffffffffffffff168173ffffffffffffffffffffffffffffffffffffffff1603610bbe576040517fe6c4247b00000000000000000000000000000000000000000000000000000000815260040160405180910390fd5b600160065f8373ffffffffffffffffffffffffffffffffffffffff1673ffffffffffffffffffffffffffffffffffffffff1681526020019081526020015f205f6101000a81548160ff0219169083151502179055508073ffffffffffffffffffffffffffffffffffffffff167f279df628b9af037bf29162daec374197af8c151a244970b1edf5de18496e6e7860405160405180910390a250565b5f33905090565b610c6d838383600161103d565b505050565b5f610c7d8484610a4b565b90507fffffffffffffffffffffffffffffffffffffffffffffffffffffffffffffffff811015610cff5781811015610cf0578281836040517ffb8f41b2000000000000000000000000000000000000000000000000000000008152600401610ce793929190611f28565b60405180910390fd5b610cfe84848484035f61103d565b5b50505050565b5f73ffffffffffffffffffffffffffffffffffffffff168373ffffffffffffffffffffffffffffffffffffffff1603610d75575f6040517f96c6fd1e000000000000000000000000000000000000000000000000000000008152600401610d6c91906119c5565b60405180910390fd5b5f73ffffffffffffffffffffffffffffffffffffffff168273ffffffffffffffffffffffffffffffffffffffff1603610de5575f6040517fec442f05000000000000000000000000000000000000000000000000000000008152600401610ddc91906119c5565b60405180910390fd5b610df083838361120c565b505050565b610dfd610c59565b73ffffffffffffffffffffffffffffffffffffffff16610e1b610829565b73ffffffffffffffffffffffffffffffffffffffff1614610e7a57610e3e610c59565b6040517f118cdaa7000000000000000000000000000000000000000000000000000000008152600401610e7191906119c5565b60405180910390fd5b565b5f73ffffffffffffffffffffffffffffffffffffffff168273ffffffffffffffffffffffffffffffffffffffff1603610eec575f6040517fec442f05000000000000000000000000000000000000000000000000000000008152600401610ee391906119c5565b60405180910390fd5b610ef75f838361120c565b5050565b5f73ffffffffffffffffffffffffffffffffffffffff168273ffffffffffffffffffffffffffffffffffffffff1603610f6b575f6040517f96c6fd1e000000000000000000000000000000000000000000000000000000008152600401610f6291906119c5565b60405180910390fd5b610f76825f8361120c565b5050565b5f60055f9054906101000a900473ffffffffffffffffffffffffffffffffffffffff1690508160055f6101000a81548173ffffffffffffffffffffffffffffffffffffffff021916908373ffffffffffffffffffffffffffffffffffffffff1602179055508173ffffffffffffffffffffffffffffffffffffffff168173ffffffffffffffffffffffffffffffffffffffff167f8be0079c531659141344cd1fd0a4f28419497f9722a3daafe3b4186f6b6457e060405160405180910390a35050565b5f73ffffffffffffffffffffffffffffffffffffffff168473ffffffffffffffffffffffffffffffffffffffff16036110ad575f6040517fe602df050000000000000000000000000000000000000000000000000000000081526004016110a491906119c5565b60405180910390fd5b5f73ffffffffffffffffffffffffffffffffffffffff168373ffffffffffffffffffffffffffffffffffffffff160361111d575f6040517f94280d6200000000000000000000000000000000000000000000000000000000815260040161111491906119c5565b60405180910390fd5b8160015f8673ffffffffffffffffffffffffffffffffffffffff1673ffffffffffffffffffffffffffffffffffffffff1681526020019081526020015f205f8573ffffffffffffffffffffffffffffffffffffffff1673ffffffffffffffffffffffffffffffffffffffff1681526020019081526020015f20819055508015611206578273ffffffffffffffffffffffffffffffffffffffff168473ffffffffffffffffffffffffffffffffffffffff167f8c5be1e5ebec7d5bd14f71427d1e84f3dd0314c0f7b2291e5b200ac8c7c3b925846040516111fd9190611777565b60405180910390a35b50505050565b5f73ffffffffffffffffffffffffffffffffffffffff168373ffffffffffffffffffffffffffffffffffffffff161415801561127457505f73ffffffffffffffffffffffffffffffffffffffff168273ffffffffffffffffffffffffffffffffffffffff1614155b1561135b5760065f8473ffffffffffffffffffffffffffffffffffffffff1673ffffffffffffffffffffffffffffffffffffffff1681526020019081526020015f205f9054906101000a900460ff161580611316575060065f8373ffffffffffffffffffffffffffffffffffffffff1673ffffffffffffffffffffffffffffffffffffffff1681526020019081526020015f205f9054906101000a900460ff16155b1561135a5782826040517f8fd7fe1b000000000000000000000000000000000000000000000000000000008152600401611351929190611f5d565b60405180910390fd5b5b61136683838361136b565b505050565b5f73ffffffffffffffffffffffffffffffffffffffff168373ffffffffffffffffffffffffffffffffffffffff16036113bb578060025f8282546113af9190611f84565b92505081905550611489565b5f805f8573ffffffffffffffffffffffffffffffffffffffff1673ffffffffffffffffffffffffffffffffffffffff1681526020019081526020015f2054905081811015611444578381836040517fe450d38c00000000000000000000000000000000000000000000000000000000815260040161143b93929190611f28565b60405180910390fd5b8181035f808673ffffffffffffffffffffffffffffffffffffffff1673ffffffffffffffffffffffffffffffffffffffff1681526020019081526020015f2081905550505b5f73ffffffffffffffffffffffffffffffffffffffff168273ffffffffffffffffffffffffffffffffffffffff16036114d0578060025f828254039250508190555061151a565b805f808473ffffffffffffffffffffffffffffffffffffffff1673ffffffffffffffffffffffffffffffffffffffff1681526020019081526020015f205f82825401925050819055505b8173ffffffffffffffffffffffffffffffffffffffff168373ffffffffffffffffffffffffffffffffffffffff167fddf252ad1be2c89b69c2b068fc378daa952ba7f163c4a11628f55a4df523b3ef836040516115779190611777565b60405180910390a3505050565b5f604051905090565b5f80fd5b5f80fd5b5f73ffffffffffffffffffffffffffffffffffffffff82169050919050565b5f6115be82611595565b9050919050565b6115ce816115b4565b81146115d8575f80fd5b50565b5f813590506115e9816115c5565b92915050565b5f602082840312156116045761160361158d565b5b5f611611848285016115db565b91505092915050565b5f8115159050919050565b61162e8161161a565b82525050565b5f6020820190506116475f830184611625565b92915050565b5f81519050919050565b5f82825260208201905092915050565b5f5b83811015611684578082015181840152602081019050611669565b5f8484015250505050565b5f601f19601f8301169050919050565b5f6116a98261164d565b6116b38185611657565b93506116c3818560208601611667565b6116cc8161168f565b840191505092915050565b5f6020820190508181035f8301526116ef818461169f565b905092915050565b5f819050919050565b611709816116f7565b8114611713575f80fd5b50565b5f8135905061172481611700565b92915050565b5f80604083850312156117405761173f61158d565b5b5f61174d858286016115db565b925050602061175e85828601611716565b9150509250929050565b611771816116f7565b82525050565b5f60208201905061178a5f830184611768565b92915050565b5f805f606084860312156117a7576117a661158d565b5b5f6117b4868287016115db565b93505060206117c5868287016115db565b92505060406117d686828701611716565b9150509250925092565b5f60ff82169050919050565b6117f5816117e0565b82525050565b5f60208201905061180e5f8301846117ec565b92915050565b5f80fd5b5f80fd5b7f4e487b71000000000000000000000000000000000000000000000000000000005f52604160045260245ffd5b6118528261168f565b810181811067ffffffffffffffff821117156118715761187061181c565b5b80604052505050565b5f611883611584565b905061188f8282611849565b919050565b5f67ffffffffffffffff8211156118ae576118ad61181c565b5b6118b78261168f565b9050602081019050919050565b828183375f83830152505050565b5f6118e46118df84611894565b61187a565b905082815260208101848484011115611900576118ff611818565b5b61190b8482856118c4565b509392505050565b5f82601f83011261192757611926611814565b5b81356119378482602086016118d2565b91505092915050565b5f80604083850312156119565761195561158d565b5b5f83013567ffffffffffffffff81111561197357611972611591565b5b61197f85828601611913565b925050602083013567ffffffffffffffff8111156119a05761199f611591565b5b6119ac85828601611913565b9150509250929050565b6119bf816115b4565b82525050565b5f6020820190506119d85f8301846119b6565b92915050565b5f80fd5b5f80fd5b5f8083601f8401126119fb576119fa611814565b5b8235905067ffffffffffffffff811115611a1857611a176119de565b5b602083019150836020820283011115611a3457611a336119e2565b5b9250929050565b5f805f60408486031215611a5257611a5161158d565b5b5f611a5f86828701611716565b935050602084013567ffffffffffffffff811115611a8057611a7f611591565b5b611a8c868287016119e6565b92509250509250925092565b5f8060408385031215611aae57611aad61158d565b5b5f611abb858286016115db565b9250506020611acc858286016115db565b9150509250929050565b7f4e487b71000000000000000000000000000000000000000000000000000000005f52602260045260245ffd5b5f6002820490506001821680611b1a57607f821691505b602082108103611b2d57611b2c611ad6565b5b50919050565b5f819050815f5260205f209050919050565b5f6020601f8301049050919050565b5f82821b905092915050565b5f60088302611b8f7fffffffffffffffffffffffffffffffffffffffffffffffffffffffffffffffff82611b54565b611b998683611b54565b95508019841693508086168417925050509392505050565b5f819050919050565b5f611bd4611bcf611bca846116f7565b611bb1565b6116f7565b9050919050565b5f819050919050565b611bed83611bba565b611c01611bf982611bdb565b848454611b60565b825550505050565b5f90565b611c15611c09565b611c20818484611be4565b505050565b5b81811015611c4357611c385f82611c0d565b600181019050611c26565b5050565b601f821115611c8857611c5981611b33565b611c6284611b45565b81016020851015611c71578190505b611c85611c7d85611b45565b830182611c25565b50505b505050565b5f82821c905092915050565b5f611ca85f1984600802611c8d565b1980831691505092915050565b5f611cc08383611c99565b9150826002028217905092915050565b611cd98261164d565b67ffffffffffffffff811115611cf257611cf161181c565b5b611cfc8254611b03565b611d07828285611c47565b5f60209050601f831160018114611d38575f8415611d26578287015190505b611d308582611cb5565b865550611d97565b601f198416611d4686611b33565b5f5b82811015611d6d57848901518255600182019150602085019450602081019050611d48565b86831015611d8a5784890151611d86601f891682611c99565b8355505b6001600288020188555050505b505050505050565b5f6080820190508181035f830152611db7818761169f565b90508181036020830152611dcb818661169f565b90508181036040830152611ddf818561169f565b90508181036060830152611df3818461169f565b905095945050505050565b5f604082019050611e115f830185611768565b611e1e6020830184611768565b9392505050565b7f4e487b71000000000000000000000000000000000000000000000000000000005f52603260045260245ffd5b7f4e487b71000000000000000000000000000000000000000000000000000000005f52601160045260245ffd5b5f611e89826116f7565b9150611e94836116f7565b9250828203905081811115611eac57611eab611e52565b5b92915050565b5f611ebc826116f7565b9150611ec7836116f7565b9250828202611ed5816116f7565b91508282048414831517611eec57611eeb611e52565b5b5092915050565b5f606082019050611f065f830186611768565b611f136020830185611768565b611f206040830184611768565b949350505050565b5f606082019050611f3b5f8301866119b6565b611f486020830185611768565b611f556040830184611768565b949350505050565b5f604082019050611f705f8301856119b6565b611f7d60208301846119b6565b9392505050565b5f611f8e826116f7565b9150611f99836116f7565b9250828201905080821115611fb157611fb0611e52565b5b9291505056fea26469706673582212208c089b63b2549e6bdbcbef472e39afb1214d2deb12e90c204fa7d7a195b9c93e64736f6c63430008180033","linkReferences":{}},"methodIdentifiers":{"addToAllowlist(address)":"f8e86ece","allowance(address,address)":"dd62ed3e","approve(address,uint256)":"095ea7b3","balanceOf(address)":"70a08231","buyback(address,uint256)":"655f767c","changeMetadata(string,string)":"595bddf9","decimals()":"313ce567","executeSplit(uint256,address[])":"cf1e674a","isAllowlisted(address)":"05a3b809","mint(address,uint256)":"40c10f19","name()":"06fdde03","owner()":"8da5cb5b","removeFromAllowlist(address)":"5da93d7e","renounceOwnership()":"715018a6","symbol()":"95d89b41","totalSupply()":"18160ddd","transfer(address,uint256)":"a9059cbb","transferFrom(address,address,uint256)":"23b872dd","transferOwnership(address)":"f2fde38b"},"id":27}